{
  "transactions": [
    {
      "hash": "0x9f343b197bd623ff7fb89c41fa3f480b4eed53c4db94bcc58ca2ffcc6fb2c2a7",
      "transactionType": "CALL",
      "contractName": null,
      "contractAddress": "0xff6772ac8c69f8742519f722cb9eba7836e496fd",
      "function": "applyChainUpdates(uint64[],(uint64,bytes[],bytes,(bool,uint128,uint128),(bool,uint128,uint128))[])",
      "arguments": [
        "[]",
        "[(6898391096552792247, [0x000000000000000000000000fe80823600ca94d77ed7963996237622452cc474], 0x000000000000000000000000f1f77da35d399a3d88759f3dad12ae1e89e11259, (false, 0, 0), (false, 0, 0))]"
      ],
      "transaction": {
        "from": "0xe0dae1365b16bd1e69a2596a12dbf77f0f7be716",
        "to": "0xff6772ac8c69f8742519f722cb9eba7836e496fd",
        "gas": "0x706cb",
        "value": "0x0",
        "input": "0xe8a1da17000000000000000000000000000000000000000000000000000000000000004000000000000000000000000000000000000000000000000000000000000000600000000000000000000000000000000000000000000000000000000000000000000000000000000000000000000000000000000000000000000000000000000100000000000000000000000000000000000000000000000000000000000000200000000000000000000000000000000000000000000000005fbc02272fbf20b7000000000000000000000000000000000000000000000000000000000000012000000000000000000000000000000000000000000000000000000000000001a0000000000000000000000000000000000000000000000000000000000000000000000000000000000000000000000000000000000000000000000000000000000000000000000000000000000000000000000000000000000000000000000000000000000000000000000000000000000000000000000000000000000000000000000000000000000000000000000000000000000000000000000000000000000000000000000000000000000000000000000000000000000000000000000000000000000000000000000000000000000000000000000000000000000000000100000000000000000000000000000000000000000000000000000000000000200000000000000000000000000000000000000000000000000000000000000020000000000000000000000000fe80823600ca94d77ed7963996237622452cc4740000000000000000000000000000000000000000000000000000000000000020000000000000000000000000f1f77da35d399a3d88759f3dad12ae1e89e11259",
        "nonce": "0x2a",
        "chainId": "0xaa36a7"
      },
      "additionalContracts": [],
      "isFixedGasLimit": false
    }
  ],
  "receipts": [
    {
      "status": "0x1",
      "cumulativeGasUsed": "0x1674d6a",
      "logs": [
        {
          "address": "0xff6772ac8c69f8742519f722cb9eba7836e496fd",
          "topics": [
            "0x7d628c9a1796743d365ab521a8b2a4686e419b3269919dc9145ea2ce853b54ea",
            "0x0000000000000000000000000000000000000000000000005fbc02272fbf20b7"
          ],
          "data": "0x00000000000000000000000000000000000000000000000000000000000000200000000000000000000000000000000000000000000000000000000000000020000000000000000000000000fe80823600ca94d77ed7963996237622452cc474",
          "blockHash": "0x827a1658c3c5e555e14d4f3a7bb17b41ba62aa646516a51b643108eb8f65f3ab",
          "blockNumber": "0x86561c",
          "blockTimestamp": "0x687ccfb4",
          "transactionHash": "0x9f343b197bd623ff7fb89c41fa3f480b4eed53c4db94bcc58ca2ffcc6fb2c2a7",
          "transactionIndex": "0xf8",
          "logIndex": "0x1fd",
          "removed": false
        },
        {
          "address": "0xff6772ac8c69f8742519f722cb9eba7836e496fd",
          "topics": [
            "0x8d340f17e19058004c20453540862a9c62778504476f6756755cb33bcd6c38c2"
          ],
          "data": "0x0000000000000000000000000000000000000000000000005fbc02272fbf20b700000000000000000000000000000000000000000000000000000000000001000000000000000000000000000000000000000000000000000000000000000000000000000000000000000000000000000000000000000000000000000000000000000000000000000000000000000000000000000000000000000000000000000000000000000000000000000000000000000000000000000000000000000000000000000000000000000000000000000000000000000000000000000000000000000000000000000000000000000000000000000000000000000000000000000000000000000000000000000000000000000000000000000000000000000020000000000000000000000000f1f77da35d399a3d88759f3dad12ae1e89e11259",
          "blockHash": "0x827a1658c3c5e555e14d4f3a7bb17b41ba62aa646516a51b643108eb8f65f3ab",
          "blockNumber": "0x86561c",
          "blockTimestamp": "0x687ccfb4",
          "transactionHash": "0x9f343b197bd623ff7fb89c41fa3f480b4eed53c4db94bcc58ca2ffcc6fb2c2a7",
          "transactionIndex": "0xf8",
          "logIndex": "0x1fe",
          "removed": false
        }
      ],
      "logsBloom": "0x00000000000000400000000000000000200000000000000000000000000000000000000000000004000000000000000000000000000000000004000000000004000000000000000000000000040000000000000000000000000000000000000000000000000000000000000000000040000000000000000000000000000000400000000000000000000000000000000000000000000000000002000000000000000000000000008000000000000000000000000000000000000000000000000000000000000000000000000000000000000000000000000000000000000000000000000000000000000000000000000000000000008000000100000000000000",
      "type": "0x2",
      "transactionHash": "0x9f343b197bd623ff7fb89c41fa3f480b4eed53c4db94bcc58ca2ffcc6fb2c2a7",
      "transactionIndex": "0xf8",
      "blockHash": "0x827a1658c3c5e555e14d4f3a7bb17b41ba62aa646516a51b643108eb8f65f3ab",
      "blockNumber": "0x86561c",
      "gasUsed": "0x4cdf2",
      "effectiveGasPrice": "0x1e9403",
      "from": "0xe0dae1365b16bd1e69a2596a12dbf77f0f7be716",
      "to": "0xff6772ac8c69f8742519f722cb9eba7836e496fd",
      "contractAddress": null
    }
  ],
  "libraries": [],
  "pending": [],
  "returns": {},
  "timestamp": 1753010098,
  "chain": 11155111,
  "commit": null
}